{
  "contractName": "StakingRewards",
  "abi": [
    {
      "inputs": [
        {
          "internalType": "address",
          "name": "_tokenAddress",
          "type": "address"
        }
      ],
      "stateMutability": "nonpayable",
      "type": "constructor"
    },
    {
      "inputs": [
        {
          "internalType": "address",
          "name": "stakeHolder",
          "type": "address"
        }
      ],
      "name": "getStakes",
      "outputs": [
        {
          "internalType": "uint256",
          "name": "",
          "type": "uint256"
        }
      ],
      "stateMutability": "view",
      "type": "function",
      "constant": true
    },
    {
      "inputs": [],
      "name": "getTotalStakes",
      "outputs": [
        {
          "internalType": "uint256",
          "name": "",
          "type": "uint256"
        }
      ],
      "stateMutability": "view",
      "type": "function",
      "constant": true
    },
    {
      "inputs": [
        {
          "internalType": "uint256",
          "name": "_stake",
          "type": "uint256"
        }
      ],
      "name": "createStake",
      "outputs": [],
      "stateMutability": "nonpayable",
      "type": "function"
    },
    {
      "inputs": [
        {
          "internalType": "address",
          "name": "_address",
          "type": "address"
        }
      ],
      "name": "isStakeHolder",
      "outputs": [
        {
          "internalType": "bool",
          "name": "",
          "type": "bool"
        },
        {
          "internalType": "uint256",
          "name": "",
          "type": "uint256"
        }
      ],
      "stateMutability": "view",
      "type": "function",
      "constant": true
    },
    {
      "inputs": [
        {
          "internalType": "address",
          "name": "_stakeHolder",
          "type": "address"
        }
      ],
      "name": "addStakeHolder",
      "outputs": [],
      "stateMutability": "nonpayable",
      "type": "function"
    },
    {
      "inputs": [
        {
          "internalType": "address",
          "name": "_stakeHolder",
          "type": "address"
        }
      ],
      "name": "removeStakeHolder",
      "outputs": [],
      "stateMutability": "nonpayable",
      "type": "function"
    }
  ],
  "bytecode": "0x608060405234801561001057600080fd5b50604051610b2d380380610b2d8339818101604052810190610032919061008d565b806000806101000a81548173ffffffffffffffffffffffffffffffffffffffff021916908373ffffffffffffffffffffffffffffffffffffffff160217905550506100ff565b600081519050610087816100e8565b92915050565b60006020828403121561009f57600080fd5b60006100ad84828501610078565b91505092915050565b60006100c1826100c8565b9050919050565b600073ffffffffffffffffffffffffffffffffffffffff82169050919050565b6100f1816100b6565b81146100fc57600080fd5b50565b610a1f8061010e6000396000f3fe608060405234801561001057600080fd5b50600436106100625760003560e01c806311a76f37146100675780631bf6ddae1461008357806345f412b01461009f57806363512159146100bb57806368c33627146100ec5780637ba6f4581461010a575b600080fd5b610081600480360381019061007c9190610737565b61013a565b005b61009d60048036038101906100989190610789565b6101b5565b005b6100b960048036038101906100b49190610737565b610357565b005b6100d560048036038101906100d09190610737565b6104d6565b6040516100e3929190610816565b60405180910390f35b6100f46105af565b604051610101919061083f565b60405180910390f35b610124600480360381019061011f9190610737565b610699565b604051610131919061083f565b60405180910390f35b6000610145826104d6565b509050806101b1576001829080600181540180825580915050600190039060005260206000200160009091909190916101000a81548173ffffffffffffffffffffffffffffffffffffffff021916908373ffffffffffffffffffffffffffffffffffffffff1602179055505b5050565b60008054906101000a900473ffffffffffffffffffffffffffffffffffffffff1673ffffffffffffffffffffffffffffffffffffffff166323b872dd3330846040518463ffffffff1660e01b8152600401610212939291906107df565b602060405180830381600087803b15801561022c57600080fd5b505af1158015610240573d6000803e3d6000fd5b505050506040513d601f19601f820116820180604052508101906102649190610760565b61026d57600080fd5b6000600260003373ffffffffffffffffffffffffffffffffffffffff1673ffffffffffffffffffffffffffffffffffffffff1681526020019081526020016000205414156102bf576102be3361013a565b5b61031181600260003373ffffffffffffffffffffffffffffffffffffffff1673ffffffffffffffffffffffffffffffffffffffff168152602001908152602001600020546106e290919063ffffffff16565b600260003373ffffffffffffffffffffffffffffffffffffffff1673ffffffffffffffffffffffffffffffffffffffff1681526020019081526020016000208190555050565b600080610363836104d6565b9150915081156104d157600180808054905061037f91906108b0565b815481106103b6577f4e487b7100000000000000000000000000000000000000000000000000000000600052603260045260246000fd5b9060005260206000200160009054906101000a900473ffffffffffffffffffffffffffffffffffffffff166001828154811061041b577f4e487b7100000000000000000000000000000000000000000000000000000000600052603260045260246000fd5b9060005260206000200160006101000a81548173ffffffffffffffffffffffffffffffffffffffff021916908373ffffffffffffffffffffffffffffffffffffffff160217905550600180548061049b577f4e487b7100000000000000000000000000000000000000000000000000000000600052603160045260246000fd5b6001900381819060005260206000200160006101000a81549073ffffffffffffffffffffffffffffffffffffffff021916905590555b505050565b60008060005b6001805490508110156105a15760018181548110610523577f4e487b7100000000000000000000000000000000000000000000000000000000600052603260045260246000fd5b9060005260206000200160009054906101000a900473ffffffffffffffffffffffffffffffffffffffff1673ffffffffffffffffffffffffffffffffffffffff168473ffffffffffffffffffffffffffffffffffffffff16141561058e5760018192509250506105aa565b80806105999061092c565b9150506104dc565b50600080915091505b915091565b6000806000905060005b6001805490508110156106915761067c6002600060018481548110610607577f4e487b7100000000000000000000000000000000000000000000000000000000600052603260045260246000fd5b9060005260206000200160009054906101000a900473ffffffffffffffffffffffffffffffffffffffff1673ffffffffffffffffffffffffffffffffffffffff1673ffffffffffffffffffffffffffffffffffffffff16815260200190815260200160002054836106e290919063ffffffff16565b915080806106899061092c565b9150506105b9565b508091505090565b6000600260008373ffffffffffffffffffffffffffffffffffffffff1673ffffffffffffffffffffffffffffffffffffffff168152602001908152602001600020549050919050565b600081836106f0919061085a565b905092915050565b600081359050610707816109a4565b92915050565b60008151905061071c816109bb565b92915050565b600081359050610731816109d2565b92915050565b60006020828403121561074957600080fd5b6000610757848285016106f8565b91505092915050565b60006020828403121561077257600080fd5b60006107808482850161070d565b91505092915050565b60006020828403121561079b57600080fd5b60006107a984828501610722565b91505092915050565b6107bb816108e4565b82525050565b6107ca816108f6565b82525050565b6107d981610922565b82525050565b60006060820190506107f460008301866107b2565b61080160208301856107b2565b61080e60408301846107d0565b949350505050565b600060408201905061082b60008301856107c1565b61083860208301846107d0565b9392505050565b600060208201905061085460008301846107d0565b92915050565b600061086582610922565b915061087083610922565b9250827fffffffffffffffffffffffffffffffffffffffffffffffffffffffffffffffff038211156108a5576108a4610975565b5b828201905092915050565b60006108bb82610922565b91506108c683610922565b9250828210156108d9576108d8610975565b5b828203905092915050565b60006108ef82610902565b9050919050565b60008115159050919050565b600073ffffffffffffffffffffffffffffffffffffffff82169050919050565b6000819050919050565b600061093782610922565b91507fffffffffffffffffffffffffffffffffffffffffffffffffffffffffffffffff82141561096a57610969610975565b5b600182019050919050565b7f4e487b7100000000000000000000000000000000000000000000000000000000600052601160045260246000fd5b6109ad816108e4565b81146109b857600080fd5b50565b6109c4816108f6565b81146109cf57600080fd5b50565b6109db81610922565b81146109e657600080fd5b5056fea2646970667358221220d774d52152f560545832348d3e3969fdc7ae9afb76073a863a32a982382c6e4564736f6c63430008030033",
  "immutableReferences": {},
  "source": "// SPDX-License-Identifier: SEE LICENSE IN LICENSE\npragma solidity >=0.4.22 <0.9.0;\n\nimport \"@openzeppelin/contracts/token/ERC20/ERC20.sol\";\nimport \"@openzeppelin/contracts/access/Ownable.sol\";\nimport \"@openzeppelin/contracts/utils/math/SafeMath.sol\";\n\n/**\n * @notice basic implementation of the Staking Mechanism for Niko Token\n * @author Thal Marcelin\n */\ncontract StakingRewards {\n    using SafeMath for uint256;\n\n    IERC20 token;\n    address[] internal stakeHolders;\n    mapping(address => uint256) internal stakes;\n\n    /**\n     * @dev initializes a new Staking Rewards instance\n     *\n     * @param _tokenAddress     initial supply of NKO\n     */\n    constructor(address _tokenAddress){\n        token = ERC20(_tokenAddress);\n    }\n\n    /**\n    * @dev retrieve the stake for a stakeholder.\n    *\n    * @param stakeHolder The stakeholder to retrieve the stake for.\n    * @return uint256 the amount of Niko staked.\n    */\n    function getStakes(address stakeHolder) public view returns(uint256) {\n        return stakes[stakeHolder];\n    }\n\n    /**\n    * @notice a method to get the total user stked token\n    * @return uint256 the aggregated stakes from all stakeholders.\n    */\n    function getTotalStakes() public view returns(uint256) {\n        uint256 totalStakes = 0;\n        for(uint256 i; i < stakeHolders.length; i++){\n            totalStakes = totalStakes.add(stakes[stakeHolders[i]]);\n        }\n        return totalStakes;\n    }\n\n    /**\n    * @dev a method for a stakeholder to create a stake.\n    * @param _stake The size of the stake to be created.\n    */\n    function createStake(uint256 _stake) public {\n        require(token.transferFrom(msg.sender, address(this), _stake));\n\n        if(stakes[msg.sender] == 0) addStakeHolder(msg.sender);\n        stakes[msg.sender] = stakes[msg.sender].add(_stake);\n    }\n\n    /**\n    * @notice function to check if an address is already a stakeholder\n    *\n    * @param _address    the address to verify.\n    * @return bool, uint256 whether the address is a stakeholder,\n    * and if yes its position in the stakeholders array.\n    */\n    function isStakeHolder(address _address) public view returns(bool, uint256) {\n        for(uint256 i = 0; i < stakeHolders.length; i++){\n            if(_address == stakeHolders[i]) return (true, i);\n        }\n        return (false, 0);\n    }\n\n    /**\n    * @notice  to add a stakeholder.\n    * @param _stakeHolder The stakeholder to add.\n    */\n    function addStakeHolder(address _stakeHolder) public {\n        (bool isStaking,) = isStakeHolder(_stakeHolder);\n        if(!isStaking) stakeHolders.push(_stakeHolder);\n    }\n\n    /**\n    * @notice to remove a stakeholder.\n    * @param _stakeHolder the stakeholder to remove.\n    */\n    function removeStakeHolder(address _stakeHolder) public {\n        (bool isStaking, uint256 i) = isStakeHolder(_stakeHolder);\n        if(isStaking){\n            stakeHolders[i] = stakeHolders[stakeHolders.length - 1];\n            stakeHolders.pop();\n        }\n    }\n\n}\n",
  "sourcePath": "/Users/thal/Github/Niko/contracts/staking/StakingRewards.sol",
  "compiler": {
    "name": "solc",
    "version": "0.8.3+commit.8d00100c.Emscripten.clang"
  },
  "schemaVersion": "3.3.4",
  "updatedAt": "2021-04-09T17:42:21.787Z",
  "networkType": "ethereum",
  "devdoc": {
    "author": "Thal Marcelin",
    "kind": "dev",
    "methods": {
      "addStakeHolder(address)": {
        "params": {
          "_stakeHolder": "The stakeholder to add."
        }
      },
      "constructor": {
        "details": "initializes a new Staking Rewards instance",
        "params": {
          "_tokenAddress": "initial supply of NKO"
        }
      },
      "createStake(uint256)": {
        "details": "a method for a stakeholder to create a stake.",
        "params": {
          "_stake": "The size of the stake to be created."
        }
      },
      "getStakes(address)": {
        "details": "retrieve the stake for a stakeholder.",
        "params": {
          "stakeHolder": "The stakeholder to retrieve the stake for."
        },
        "returns": {
          "_0": "uint256 the amount of Niko staked."
        }
      },
      "getTotalStakes()": {
        "returns": {
          "_0": "uint256 the aggregated stakes from all stakeholders."
        }
      },
      "isStakeHolder(address)": {
        "params": {
          "_address": "the address to verify."
        },
        "returns": {
          "_0": "bool, uint256 whether the address is a stakeholder, and if yes its position in the stakeholders array."
        }
      },
      "removeStakeHolder(address)": {
        "params": {
          "_stakeHolder": "the stakeholder to remove."
        }
      }
    },
    "version": 1
  },
  "userdoc": {
    "kind": "user",
    "methods": {
      "addStakeHolder(address)": {
        "notice": "to add a stakeholder."
      },
      "getTotalStakes()": {
        "notice": "a method to get the total user stked token"
      },
      "isStakeHolder(address)": {
        "notice": "function to check if an address is already a stakeholder"
      },
      "removeStakeHolder(address)": {
        "notice": "to remove a stakeholder."
      }
    },
    "notice": "basic implementation of the Staking Mechanism for Niko Token",
    "version": 1
  }
}